:100000000200AF80338C2D8D2E8013758CD8758AAD
:10001000F0D28C308D02800280F9C28DC28CAC2D62
:10002000E52EFD152E7002152DED24FFEC648034B5
:100030007F4002800280D42280CB805D758901756B
:100040002400752501752602752704752808752971
:1000500010752A20752B40752C808524907C007D9E
:1000600002120003E525252CF5907C007D5012003E
:1000700003E526252BF5907C007D28120003E5275B
:10008000252AF5907C007D14120003E5282529F52A
:10009000907C007D0A1200032280A1E4F5D07581D6
:1000A0002F78207A0FF608DAFC12003A02000002DC
:0200B000009BB3
:00000001FF
