:100000000200CE80108D998D2880003099028002E8
:1000100080F9C2992280EE805E780179007A007BB7
:10002000237D057C0012008F758700758920D28E94
:10003000758DFDE4F521F522E52224FBE5216480A0
:10004000347F500280028002802C74232522F9879D
:10005000E075985074232522F987051200030522C4
:10006000E52270020521E52224FBE5216480347F2E
:100070005002800280D42280A0898288838B00EC89
:100080004D6036E4E0F608A31DBDFFF31C80F0B818
:1000900000118B00EC4D6021E7F609081DBDFFF44F
:1000A0001C80F1898288838B00EC4D600CE493F610
:1000B00008A31DBDFFF31C80F022E4F5D075812953
:1000C00078207A09F608DAFC120017020000020014
:0100D000BA75
:0501000048656C6C3045
:00000001FF
