:100000000200C80200B175220175230A752401752A
:10001000250075803875A00175A00075808075A0D9
:100020000175A000752000752105E52145207002AD
:1000300080028002802DE5212523F582E5203522EE
:10004000F583120111F58075A00375A002E5212446
:10005000FFF521E52034FFF520E5214520700280E1
:100060000280D37580C075A00175A000E4F520F56D
:1000700021E52124F7E52034FF5002800280028030
:100080002DE5212525F582E5203524F58312011182
:10009000F58075A00375A0020521E52170020520F9
:1000A000E52124F7E52034FF5002800280D380FE52
:1000B00022020006E4F5D075812678207A06F6083B
:0B00C000DAFC1200030200000200B492
:1001000057206F2072206C206400206F6C6C654853
:1001100000E5836003E49322A882E622E58360047D
:10012000E4938003A882E6F822E5836004E49380E8
:1001300003A882E6F922E5836004E4938003A882A1
:10014000E6FA22E5836004E4938003A882E6FB22BA
:10015000E5836004E4938003A882E6FC22E58360E3
:1001600004E4938003A882E6FD22E5836004E4931F
:100170008003A882E6FE22E5836004E4938003A85E
:0401800082E6FF22F2
:00000001FF
